:100000000C9434000C9446000C9446000C9446006A
:100010000C9446000C9446000C9446000C94460048
:100020000C9446000C9446000C9446000C94460038
:100030000C9446000C9446000C9446000C94460028
:100040000C9446000C9446000C9446000C94460018
:100050000C9446000C9446000C9446000C94460008
:100060000C9446000C94460011241FBECFEFD4E040
:10007000DEBFCDBF11E0A0E0B1E001C01D92A6310E
:10008000B107E1F70E9448000C94C7010C940000EE
:10009000CF93DF930E9443017894C0E4DCE90E948F
:1000A000EA00909301018093000162E071E048E072
:1000B00051E00E94A10080910001909101019C01FA
:1000C000442737FD4095542F2093040130930501B8
:1000D000409306015093070157FF0FC088279927C7
:1000E000DC01821B930BA40BB50B8093040190934E
:1000F0000501A0930601B09307016091040170917E
:10010000050180910601909107012FEF33E040E057
:1001100050E00E94440128EE33E040E050E00E94AD
:10012000760120930401309305014093060150931A
:1001300007013093890020938800CE010197F1F7E1
:10014000AECF0F931F93CF93DF93EB018A01FA0198
:1001500011821082909581959F4F24EB3FE0289F5C
:10016000F001299FF00D389FF00D112464E670E036
:100170000E946301CB019B0155E0220F331F5A956A
:10018000E1F7880F991F281B390BE20FF31FF98342
:10019000E883F7FF0BC0882799278E1B9F0B998355
:1001A000888381E090E0F80191838083209186002C
:1001B00030918700888199812817390730F4809120
:1001C00086009091870099838883DF91CF911F915A
:1001D0000F910895EF92FF920F931F93F8946091FF
:1001E000100170911101882777FD8095982F6093F9
:1001F0000C0170930D0180930E0190930F01E0901C
:100200000A01F0900B010027F7FC0095102FE092F7
:100210001201F092130100931401109315017894C8
:1002200028EE33E040E050E00E944401A80197012D
:100230000E947601245F31404040504083E0220F0D
:10024000331F441F551F8A95D1F72C308EEF380786
:100250008FEF48078FEF580724F42CE03EEF4FEF65
:100260005FEF253F81E0380780E0480780E05807CE
:1002700024F024EF31E040E050E0C9011F910F91DC
:10028000FF90EF9008950895629FD001739FF00151
:10029000829FE00DF11D649FE00DF11D929FF00D16
:1002A000839FF00D749FF00D659FF00D9927729F4D
:1002B000B00DE11DF91F639FB00DE11DF91FBD01D8
:1002C000CF011124089597FB092E07260AD077FD48
:1002D00004D027D006D000201AF4709561957F4F86
:1002E0000895F6F7909581959F4F089597FB092EF5
:1002F00005260ED057FD04D028D00AD0001C38F4B3
:1003000050954095309521953F4F4F4F5F4F089541
:10031000F6F790958095709561957F4F8F4F9F4F21
:100320000895AA1BBB1B51E107C0AA1FBB1FA6173C
:10033000B70710F0A61BB70B881F991F5A95A9F78E
:1003400080959095BC01CD010895A1E21A2EAA1BBB
:10035000BB1BFD010DC0AA1FBB1FEE1FFF1FA21775
:10036000B307E407F50720F0A21BB30BE40BF50B72
:10037000661F771F881F991F1A9469F760957095FB
:10038000809590959B01AC01BD01CF010895F89433
:02039000FFCF9D
:00000001FF
